:020000040000FA
:020000001528C1
:100008007E1480312100901E0A280B281328200016
:10001800901E0F28102813288031F32080317E107D
:10002800090016288031F9208031F0008031FA204B
:100038008031F1008031FB208031F2008031FC20DA
:100048008031F300F801F9017E1020002B2880315F
:10005800BF2080316E302000A0000030A100803128
:10006800ED2080318B170B17320098177908803AEA
:100078002000A20080302202031D442801307802AB
:10008800031C4728482868287908803A2000A200DD
:1000980080302202031D5228FA30780203185528AE
:1000A8005628682822000C108C141030890B5A2806
:1000B80022000C148C100630890B602800320130A5
:1000C800F8070030F93D3A2822000C108C10630024
:1000D8003A2815280130F8000030F9000130F40002
:1000E8000030F5000030F6000030F7007008F40723
:1000F8007108F53D7208F63D7308F73D7708F3007F
:100108007608F2007508F1007408F00022000C155A
:100118001A30F400F830890B8F28F40B8F2800323E
:1001280022000C110800D830200098007F3096007B
:10013800950190122100901601302000A000013096
:10014800A1008031ED208031803020009700080028
:1001580022008C01303021008C00303023008C00CC
:1001680024008C0125008C01373026008C003F309C
:1001780027008C0008008031E52080318031AC20D8
:1001880080318031DC2080318031FD208031803128
:100198009720803108002000230824040319D5285B
:1001A800D628DB2824088A0023080A0080310800A2
:1001B8006030320099009B019D0106309F009E012E
:1001C8000800320091019201930194019501960172
:1001D800080020002108A4002008A300080020002F
:1001E80090128031CF20803108001434D534303457
:0C01F80061341630210097000800080058
:020000040001F9
:08000E00EC3FF33FFF3FFF3F11
:00000001FF
